:020000040800F2
:1000000000040020514C0008114D0008114D00085B
:10001000114D0008114D0008114D0008114D000848
:10002000114D0008114D0008114D0008414D000808
:10003000114D0008114D0008114D0008014E000837
:10004000114D0008114D0008114D0008114D000818
:10005000114D0008114D0008114D0008114D000808
:10006000114D0008114D0008114D0008015C0008F9
:10007000315C0008615C0008915C0008C15C00080C
:10008000F15C0008215D0008114D000811340108E1
:10009000213401084134010861340108114D000880
:1000A000114D0008114D0008114D0008114D0008B8
:1000B000114D0008114D0008114D0008114D0008A8
:1000C000114D00082162000831630008114D00083D
:1000D000114D0008C1670008E167000801680008C9
:1000E000114D0008114D0008114D0008114D000878
:1000F000114D0008114D0008114D0008114D000868
:10010000114D0008114D0008114D0008114D000857
:10011000114D0008114D0008114D0008112801086B
:10012000515D0008815D0008B15D0008E15D0008D7
:10013000115E0008114D0008114D000881340108BE
:1001400091340108B1340108D1340108114D00087F
:1001500081030008110A0008210E0008611300083D
:10016000D114000881190008811C0008411D0008F5
:10017000F11D0008311E0008611E00084120000822
:04018000B1210008A1
:1001900030B5D0F8543E85B0002B04460EDA4FF44B
:1001A0007A7004F095FB0028C4F8540E06DA624A0F
:1001B000624B1A6004F0A4FC04F0B2FD604813F036
:1001C00007FB604B0025186804F012FA03F020FAD0
:1001D0005D4BC4F84C0E186804F00AFA03F018FAE4
:1001E000C4F8500E0C20029513F0A2FA574B84600D
:1001F00080E82800564B04F5AD510393554B009011
:1002000018316846029307F0EBFC029A04F5AE53EE
:1002100019681A6041F2C453039A0291E158684682
:10022000E250039107F064F90420029513F080FA7C
:10023000494B046004F5AE510393484B00900831DC
:100240006846029307F0CCFC41F2D053029AE15881
:10025000E25041F2D453039A0291E1586846E250C9
:10026000039107F045F9204607F022F9284609F0E6
:1002700037F994F8483E13B109F01AF930B138480B
:1002800004F0EEFB204607F013F9FBE7204607F0E9
:100290000FF9344804F0E4FB334B00934FF07E53E6
:1002A0000193324B186804F0A3F903F0B1F902F09E
:1002B0004DFF01462E4803F057F82E4B009018686A
:1002C00004F096F903F0A4F902F040FF0146284833
:1002D00003F04AF8019094F8483E04F5666513B1BE
:1002E00009F0E6F890B1D4F8540E04F041FB28462A
:1002F00064210DF0FDFD94F8483E13B109F0D8F8E3
:1003000098B10020022109F0DBF8B2E728466946DF
:1003100004F654620DF03CFF0028E4D1164804F0C6
:100320009FFB204607F0C4F8D5E728460DF0E8FD0E
:100330000028D8D1E5E700BF7FB90108AC13002041
:10034000A6C20108042600206C3D0020918200080E
:10035000C173000891720008F17A0008D172000898
:10036000CEB90108E6B9010800002041D43C0020C4
:1003700000247449EC3C0020B5B9010800000000DD
:100380002DE9F04111F05CFC037A054653BB1A4C91
:100390002368D80709D4194807F0DAF80123174869
:1003A0001749184A236013F0DBF9144C28462146FC
:1003B00011F0D6FCA8B90EA3D3E90023C4E90223A7
:1003C000114B206023610123237540F25513284609
:1003D000A361214611F0C4FC18B92846214611F04A
:1003E000E7FCA8B1094811F043FF00BFAFF300805C
:1003F000F1C6A7C1D068080F00260020C025002044
:1004000051710008A81300200EBA010829BA01088A
:10041000012611F015FC314607F03AF90028E1D128
:1004200011F00EFC022107F0ABF90028DAD111F02F
:1004300007FC43F6FF7107F0FBF90028D2D111F059
:10044000FFFB037A0546002BCCD1B34C2368D907B8
:1004500008D4B24807F07CF8B048B149B14A2660E8
:1004600013F07EF9AD4C2846214611F079FC98B97D
:10047000A3A3D3E90023C4E90223AB4B206023618B
:1004800005232075A3612846214611F069FC18B99F
:100490002846214611F08CFC0028A3D111F0D0FB96
:1004A000042107F025FA00289CD111F0C9FB037A3A
:1004B0000546002B96D19D4C2368DA0709D49C4849
:1004C00007F046F801239A489549964A236013F0AD
:1004D00047F9974C2846214611F042FCA8B98AA357
:1004E000D3E90023C4E90223924B20602361012356
:1004F000237540F226432846A361214611F030FCC3
:1005000018B92846214611F053FC00287FF46AAF41
:1005100011F096FB40F2244107F082FB00287FF4A3
:1005200061AF11F08DFB037A0646002B7FF45AAFC2
:10053000814C2368DB0709D4804807F009F80123C0
:100540007E487749774A236013F00AF97B4C30469E
:10055000214611F005FCA8B96DA3D3E90023C4E935
:100560000223774B206023610123237540F225434A
:100570003046A361214611F0F3FB18B930462146FD
:1005800011F016FC054600287FF42CAF6D486E4B29
:100590006E4C03606E4B012683606E4B4460C360FB
:1005A000067403F005FE6C486C4B846003606C4B72
:1005B00006744360C36003F0FBFD6A486A4BDFF8D2
:1005C000E481002403604FF0834343608460C0F8FB
:1005D0000C800674654F03F0EBFD6548654B476082
:1005E00003608460C0F80C80067403F0E1FD62488B
:1005F000624B44600360624B8460C360067403F026
:10060000D7FD6048604B44608460604C0360C76005
:10061000067403F0CDFD204613F0CAF85C4B0027AA
:1006200023604FF0FF33C4F8543E5A4B84F8486EB1
:10063000C4F8583E04F658630026C4F8603E04F639
:100640007863C3E9006704F56863C3E9006741F2B2
:100650008823E55041F28C234FF48062E25041F24E
:10066000902304F68862E25002F58263C3E90067D2
:1006700004F59553C3E9006741F2A823E55241F21E
:10068000AA23E55241F2AC23E55441F2AD23E554EF
:1006900041F2AE23E55441F2AF23E55441F2B823D1
:1006A0003D4AE55004F596531A6041F2C4234FF0D9
:1006B0007E52E250394B2946C3E9006703F1080036
:1006C00084F8645E84F8655E84F8685E84F8695E28
:1006D000C4F86C5EA4F8705EA022C4F84C5EC4F846
:1006E000505E13F065F929464FF40C722C4813F054
:1006F0005FF904F5AD53C3E9006755E0AFF300803F
:10070000F017304A39059E56011517CB0E03561FB8
:10071000D2BFDBC3C4BDE89BF025002040250020EC
:1007200051710008A813002039BA0108E8250020FB
:100730000025002055BA0108E0250020C024002033
:100740005FB90108D43C002076BA01080050C347C5
:10075000003582470024F449EC3C002086BA0108A9
:1007600000247449003D002096BA01080000A04111
:10077000803D0020A6BA010804260020B6BA010870
:10078000000040406C3D0020C7BA01085026002000
:10079000C8B8010898B801080000204118390020A5
:1007A000C03900200000F841C3E9026741F2B053AC
:1007B000E55204F5AE531D6041F2D053E55004F507
:1007C000AF531D602046BDE8F0410249024A12F0D5
:1007D000C7BF00BF11750008A8130020000000006B
:1007E0002DE9F04F804687B04FF47A7004F070F82E
:1007F000061E06DA744A754B1A6004F081F904F09B
:100800008FFA734812F0E4FF724804F0F9F93046A9
:1008100004F0AEF8022008F063FE012007F068FE45
:1008200008B96D480BE0002007F062FE08B96B487C
:1008300005E07820202107F00BFE18B9684804F085
:100840000FF90AE0674804F0DBF9002303A80393DB
:10085000ADF8103007F0BCFD80B908F029FE68B98A
:100860000220014608F02CFE5F4804F0F9F85948D0
:1008700004F0C6F9304604F07BF8CEE7304604F0C9
:1008800077F85A4B186803F0B3FE594B8146186845
:1008900003F0AEFE044612F083FF0746204602F046
:1008A000B7FE4FF47A746043441E5248B4FBF0F430
:1008B000013408F0FDFD00287AD100230090ADF846
:1008C000040068462744039304930593EA4607F01F
:1008D0007FFD002861D0BDF9000002F03BFC4649D5
:1008E00002F08EFC0546BDF9020002F033FC4249DD
:1008F00002F086FC0490BDF9040002F02BFC3E4996
:1009000002F07EFC049B059003F10043049503A8CC
:10091000494603AD0393AB4607F0E2FE5BF8040BD8
:1009200020F0004001F0D0FF25A3D3E9002302F01E
:10093000B5FA40B906AB9B45F0D108F5D26BDBE9BF
:100940000023134315D1504611F042FD9AE80300ED
:1009500008F5D26383E8030055F8040B274920F01B
:10096000004002F009FEA8B906AB9D42F4D1014651
:1009700011E0504611F02CFDDBE90001DDE9002318
:10098000121A63EB01031E49D1E90001904271EB99
:100990000303E1DA0121022001E00220014608F010
:1009A0008FFD384604F0ECF8304603F0E1FF80E7B5
:1009B000144804F055F8002007B0BDE8F08F00BFE0
:1009C00095D626E80B2E113E7FB90108AC13002006
:1009D00083BC010820A10700DEBB0108FDBB0108A4
:1009E0001CBC010880380100BEBB0108C43D0020CA
:1009F0007844002040420F00282C713A6666A63FDA
:100A0000D83D002043BC01080000000000000000A9
:100A100070B511F015F9037A054653BB804C236875
:100A2000D90709D47F4806F093FD01237D487E490C
:100A30007E4A236012F094FE7A4C2846214611F03B
:100A40008FF9A8B96EA3D3E90023C4E90223784B38
:100A5000206023610123237540F255132846A361CA
:100A6000214611F07DF918B92846214611F0A0F968
:100A700010B1704811F0FCFB012611F0E1F831468D
:100A800006F006FE0028F4D111F0DAF8022106F093
:100A900077FE0028EDD111F0D3F843F6FF7106F090
:100AA000C7FE0028E5D111F0CBF8037A0546002BEC
:100AB000DFD1614C2368DA0708D4604806F048FDAE
:100AC0005E485949594A266012F04AFE5B4C284656
:100AD000214611F045F998B94BA3D3E90023C4E9A5
:100AE0000223574B2060236105232075A36128460C
:100AF000214611F035F918B92846214611F058F968
:100B00000028B6D111F09CF8042106F0F1FE00286F
:100B1000AFD111F095F8037A0546002BA9D1494CC5
:100B20002368DB0709D4484806F012FD0123464834
:100B30003D493E4A236012F013FE434C28462146AD
:100B400011F00EF9A8B932A3D3E90023C4E90223B6
:100B50003E4B206023610123237540F2E933284690
:100B6000A361214611F0FCF818B92846214611F07E
:100B70001FF9044600287FF47CAF27A3D3E90023A4
:100B800033483449C0E90023284A12F0E9FD3248CD
:100B9000324B04740360324B01244360314B836059
:100BA0004FF07E53C36003F003FB2F482F4B0474B8
:100BB00003602F4B436083602E4BC36003F0F8FA51
:100BC0002D482E4B047403604FF083434360002391
:100BD0002B4C83602B4BC36003F0EAFA204612F0E3
:100BE000E7FD294B00202360002104F5D263C3E90F
:100BF00000010E4A2046BDE87040244912F0B0BD05
:100C0000F1C6A7C1D068080FF017304A39059E56C3
:100C1000F2C20B46A9D4A7E2404B4C0000000000F2
:100C200000260020C025002051710008A8130020D4
:100C30000EBA010829BA0108F0250020402500203D
:100C400039BA0108B83D0020983D002092BB010848
:100C5000D83D0020F1820008C43D00205ABC0108A4
:100C60000AD7A33BBD3786357844002067BC01080E
:100C700000409C4600247449B844002077BC010819
:100C8000E03D00200000F84198BC010821830008E5
:100C90002DE9F3410746514812F09AFD012003F077
:100CA000BFFF4F4B186808F023F8044610B90DF049
:100CB0003FFB0446002C0CBF0126002622D125460E
:100CC000484B012253F825404748214612F078FB53
:100CD0008046464803F094FFB8F1000F03DA01356F
:100CE000042DEDD16DE000213F4811F0F1FD12F02F
:100CF0006FFA38B101213C4811F0EAFD12F068FAB0
:100D00000028ECD121463848002212F059FB002877
:100D1000014606DB3648214603F0A2FE354B1C6037
:100D200009E016B1344B9842B8D0344832462346D5
:100D300003F096FEB2E738460AF0EAFE011E06DA34
:100D40002F4803F08DFE032003F06AFFF3E76420D1
:100D500003F0BEFD051E1DDA2A4A2B4B1A6003F074
:100D6000CFFE03F0DDFF15E04FF47A7003F048FF8B
:100D7000284603F0FDFD01A808F082FB08F060FFA3
:100D800000F5EF50437B53B9384609F071F801A8DC
:100D900008F01EFB1D4B1C78002CE5D016E01C4B08
:100DA0001A78002AF0D05A78002AEDD09B78002BD0
:100DB000EAD008F045FF214600F5E9500DF010FF9C
:100DC000E2E7002E7FF46AAF0B49AEE7114803F06B
:100DD00047FE002002B0BDE8F08100BF4FC401080B
:100DE00090600020C0C10108405F00209005100005
:100DF00056C40108BC60002011FCFFFF6CC4010850
:100E0000A9C401087FB90108AC13002000550020D7
:100E100084540020D3C4010800000000000000003A
:100E2000F8B510F00DFF037A054653BB184C236844
:100E3000DE0709D4174806F08BFB01231548164935
:100E4000164A236012F08CFC124C2846214610F002
:100E500087FFA8B90CA3D3E90023C4E90223104BF0
:100E6000206023610123237540F255132846A361B6
:100E7000214610F075FF18B92846214610F098FF5A
:100E800090B1084811F0F4F9F1C6A7C1D068080F75
:100E900000260020C025002051710008A813002062
:100EA0000EBA010829BA0108012610F0C9FE314620
:100EB00006F0EEFB0028E4D110F0C2FE022106F09D
:100EC0005FFC0028DDD110F0BBFE43F6FF7106F099
:100ED000AFFC0028D5D110F0B3FE037A0546002BF5
:100EE000CFD1A94C2368D80708D4A84806F030FB16
:100EF000A648A749A74A266012F032FCA34C284610
:100F0000214610F02DFF98B997A3D3E90023C4E937
:100F10000223A14B2060236105232075A36128468D
:100F2000214610F01DFF18B92846214610F040FF59
:100F30000028A6D110F084FE042106F0D9FC002878
:100F40009FD110F07DFE037A0546002B99D1934C7A
:100F50002368D90709D4924806F0FAFA0123904889
:100F60008B498C4A236012F0FBFB8D4C28462146AE
:100F700010F0F6FEA0B97EA3D3E90023C4E9022352
:100F8000884B20602361012323750423A361284635
:100F9000214610F0E5FE18B92846214610F008FF5A
:100FA00000287FF46EAF10F04BFE0B2109F080FF9C
:100FB00000287FF466AF10F043FE037A0546002B4D
:100FC0007FF45FAF784C2368DA0709D4774806F0DE
:100FD000BFFA012375486E496E4A236012F0C0FBC8
:100FE000724C2846214610F0BBFE98B962A3D3E9A3
:100FF0000023C4E902236E4B206023610A2320757D
:10100000A3612846214610F0ABFE18B928462146B8
:1010100010F0CEFE00287FF434AF10F011FE037AFA
:101020000546002B7FF42DAF624C2368DB0709D403
:10103000614806F08DFA01235F485549554A2360FF
:1010400012F08EFB5C4C2846214610F089FE98B9C0
:101050004BA3D3E90023C4E90223584B206023614A
:1010600001232375A3612846214610F079FE18B9A3
:101070002846214610F09CFE00287FF402AF10F0B5
:10108000DFFD282109F0B4FB00287FF4FAAE4C48BC
:101090004C4B4D4E03604D4B0124836004744660FD
:1010A000C66003F085F84A484A4B4FF07E5703600C
:1010B000494B87604360494B0474C36003F078F880
:1010C0004748484B00250360456085600474C6604E
:1010D00003F06EF84448454B4760454F0360856018
:1010E0000474C76003F064F84248434B047403601F
:1010F000424BC6604360424B836003F059F841485D
:10110000414B85600360414B04744360C76003F04A
:101110004FF83F4C04F580650023002244E9022388
:10112000204608F005FA002323822034AC42F3D194
:10113000384C04F580650026002744E90267204604
:1011400008F0F6F9002323822034AC42F3D1324870
:10115000324CA0F5006109F0ABFB31490D4A314832
:1011600012F0FEFA60E000BFF017304A39059E56D3
:10117000DBC293A716112720CDD269EBC51A133B0A
:10118000401DA12026812A0BF025002040250020AB
:1011900051710008A813002039BA010880450020C9
:1011A00050450020EEC2010878450020104500207F
:1011B00053C3010874450020F0440020E6C4010830
:1011C0009060002011C501080024744900409C462D
:1011D0007860002021C50108000048420000FA4262
:1011E0002857002030C501081057002041C50108CC
:1011F0000000F841F856002052C50108005043484D
:101200000000FA447054002063C501080000A041AA
:1012100048570020485B0020405F002088450020A0
:1012200051990008405700200E4812F001FB0E496A
:101230000E4A0F4812F094FA0E490C4A0E4812F06A
:101240008FFA204612F0B4FA0C4B2046236004F6C5
:101250004863C3E90067BDE8F8400949034A12F052
:101260007FBA00BFAC60002031880008A8130020BE
:1012700030080020218800082C08002088C50108BB
:10128000418800080000000000000000000000008D
:10129000F8B50CF0E5FF0BF0BBFF08F031F90DF0ED
:1012A000F7F806F09DF907F07BF940F24C4003F0A7
:1012B0000FFB061E06DA244A244B1A6003F020FCBA
:1012C00003F02EFD0DF02CFA022012F089FA08F03E
:1012D000EFF878BB08F0B4FC00F5EF50437B4BB956
:1012E00008F0AEFC00F5EF50037B3BB1012B08D0BA
:1012F000642407E04FF4FA74254604E04FF4617467
:1013000000E0C82464254FF47A7701200BF0C0FF79
:1013100007FB05F003F074FC304603F029FB0020C6
:101320000BF0B6FF07FB04F003F06AFC304603F055
:101330001FFBCCE701200BF0ABFF054803F060FC7E
:101340000CF016F80020F8BD7FB90108AC1300209E
:1013500020A10700000000000000000000000000C5
:101360002DE9704310F06CFC037A0646002B34D153
:101370004D4A4E48136813F0010310D14C490360E5
:1013800003754FF0FF3300240025836101230161C1
:101390001360C0E902454749474A12F0E1F9434D5D
:1013A0003046294610F0DCFCA8B93BA3D3E9002362
:1013B000C5E90223414B28602B6101232B7540F2C4
:1013C00055133046AB61294610F0CAFC18B93046B7
:1013D000294610F0EDFC044610B1394810F048FFE2
:1013E000012610F02DFC314606F052F90028F4D108
:1013F00010F026FC022106F0C3F90028EDD110F010
:101400001FFC43F6FF7106F013FA0028E5D110F037
:1014100017FC037A0546002BDFD12A4B2A481A68AD
:1014200012F0010F11D1224A4FF000084FF00009CD
:1014300002614FF0FF3282610460C0E902890475E5
:101440001C491D4A1E6012F08BF91F4C284621468C
:1014500010F086FC98B912A3D3E90023C4E9022353
:101460001A4B2060236105232075A361284621467D
:1014700010F076FC18B92846214610F099FC002897
:10148000ABD110F0DDFB042106F032FA0028A4D124
:10149000BDE87083AFF30080F1C6A7C1D068080F24
:1014A000F017304A39059E5600260020C02500203E
:1014B000A2B6010851710008A81300200EBA010855
:1014C00029BA0108F02500204025002039BA01087A
:1014D0002DE9704310F0B4FB037A0646002B34D19B
:1014E0004F4A5048136813F0010310D14E4903606E
:1014F00003754FF0FF330024002583610123016150
:101500001360C0E902454949494A12F029F9454D9D
:101510003046294610F024FCA8B93DA3D3E90023A6
:10152000C5E90223434B28602B6101232B7540F250
:1015300055133046AB61294610F012FC18B93046FD
:10154000294610F035FC044610B13B4810F090FEDF
:10155000012610F075FB314606F09AF80028F4D108
:1015600010F06EFB022106F00BF90028EDD110F00F
:1015700067FB43F6FF7106F05BF90028E5D110F038
:101580005FFB037A0546002BDFD12C4B2C481A68F1
:1015900012F0010F11D1244A4FF000084FF000095A
:1015A00002614FF0FF3282610460C0E90289047574
:1015B0001E491F4A1E6012F0D3F8214C28462146CE
:1015C00010F0CEFB98B914A3D3E90023C4E9022399
:1015D0001C4B2060236105232075A361284621460A
:1015E00010F0BEFB18B92846214610F0E1FB044676
:1015F0000028AAD110F024FB042106F079F9002874
:10160000A3D1114BFF221A711C60BDE8708300BF8B
:10161000F1C6A7C1D068080FF017304A39059E56A9
:1016200000260020C0250020A2B601085171000844
:10163000A81300200EBA010829BA0108F0250020DD
:101640004025002039BA01088082002000000000F7
:101650002DE9F04FD0F898368DB0002B04460EDA05
:1016600040F24C4003F034F90028C4F8980606DA3A
:101670009E4A9F4B1A6003F043FA03F051FB9D48CA
:1016800012F0A6F89C4B186802F0B2FF9B4BC4F80E
:101690009006186802F0ACFFC4F8940607F008FF43
:1016A000002840F01B81D4F8980603F061F99448B3
:1016B00003F0A6FA04F29C68D4F8980603F058F9EF
:1016C000404602F045FC08B98E48EFE0404602F083
:1016D00067FC08B98C48E9E0012007F001FF12F02F
:1016E0005FF88A4B8146186802F082FF01F090FF94
:1016F00048F23525A84238BF28464FF47A7303FBD9
:1017000000F5681E824DB0FBF5F56B1C039307F0E6
:10171000CFFE0646002840F0BF80D4F8980603F0BC
:1017200027F9039B404605A906AA99440596069603
:1017300002F066FB002800F0AF80059801F00AFD7A
:101740008246069801F006FD724901F00DFE06463C
:1017500007F0A6FE002800F088806F4B6F4F1A68D4
:10176000D0075CBF01221A606D4BD4F89026C3F8F5
:1017700000A05A606B4B30461A68D1075CBF01224B
:101780001A60694901F032FCD4F89436386007A831
:101790007B6007F075FE08F053FA644F83463B68A0
:1017A000DA0714D4624A0023CDE90A23614A0023F0
:1017B000CDE9082359460AAA08AB5F4805F0D8FED0
:1017C00001235D485D495E4A3B6011F0C9FF5D4FF2
:1017D0003B68DB0714D4564A0023CDE90A23554A57
:1017E0000023CDE9082359460AAA08AB564805F05C
:1017F000BFFE012354485549514A3B6011F0B0FFE8
:10180000534F3B788BB9534D286802F0F1FE01F03D
:10181000FFFE494B1873286802F0EAFE01F0F8FE5B
:10182000494B187301233B70EAE74B4B0CAF93F81D
:1018300000B00022002367E9022300253849022274
:101840005B468DE8A0003C480CF042FE00220023DD
:10185000CDE90A238DE8A0003B48304902225B46CF
:101860000CF086FE079811F083FE50463B4901F0CC
:1018700079FE70B150463A4901F06AFE48B13046EF
:10188000384901F06FFE20B13046374901F060FE63
:1018900078B9012002211BE007F00AFE00287FF43E
:1018A000FDAE0120022107F00BFE304803F0D8F80E
:1018B000F4E630462E4901F055FE20B130462D4960
:1018C00001F046FE10B90120014601E0012000218F
:1018D00007F0F6FD484603F053F918E7264803F0F1
:1018E000BFF800200DB0BDE8F08F00BF7FB9010840
:1018F000AC130020BAC801084883002008830020E8
:1019000020A10700C5C80108EDC80108288A0020E9
:1019100040420F000000C8425C830020448A00203F
:10192000D48200203C8A002033938843408A0020E0
:10193000A086010000879303E0820020D1E3000825
:10194000A8130020D082002020830020E1E30008BB
:10195000DC82002060830020DB90002000007A44BD
:101960000060EA47000020C20000AA4219C901082D
:101970000000F0C1000070423CC9010800000000F6
:10198000F8B510F05DF9037A054653BB9C4C23680B
:10199000D80709D49B4805F0DBFD012399489A49F3
:1019A0009A4A236011F0DCFE964C2846214610F03E
:1019B000D7F9A8B98AA3D3E90023C4E90223944B39
:1019C000206023610123237540F255132846A3614B
:1019D000214610F0C5F918B92846214610F0E8F95B
:1019E00010B18C4810F044FC012610F029F9314662
:1019F00005F04EFE0028F4D110F022F9022105F086
:101A0000BFFE0028EDD110F01BF943F6FF7105F081
:101A10000FFF0028E5D110F013F9037A0546002BDB
:101A2000DFD17D4C2368D90708D47C4805F090FDB0
:101A30007A487549754A266011F092FE774C28461F
:101A4000214610F08DF998B967A3D3E90023C4E9C2
:101A50000223734B2060236105232075A361284670
:101A6000214610F07DF918B92846214610F0A0F95A
:101A70000028B6D110F0E4F8042105F039FF002861
:101A8000AFD110F0DDF8037A0546002BA9D1654CE3
:101A90002368DA0709D4644805F05AFD0123624837
:101AA00059495A4A236011F05BFE5F4C2846214693
:101AB00010F056F9A8B94EA3D3E90023C4E90223D4
:101AC0005A4B206023610123237540F204432846CA
:101AD000A361214610F044F918B92846214610F0B8
:101AE00067F900287FF47DAF10F0AAF8037A064664
:101AF000002B7FF476AF4E4C2368DB0709D44D48AA
:101B000005F026FD01234B483F49404A236011F070
:101B100027FE484D3046294610F022F9A8B936A3D1
:101B2000D3E90023C5E90223434B28602B6101233D
:101B30002B7540F205433046AB61294610F010F991
:101B400018B93046294610F033F9044600287FF4CE
:101B500048AF3A483A4B002603603A4B01254660AD
:101B60008660C360057402F023FB3748374B8660FC
:101B700003604FF083434360354B0574C36002F04C
:101B800017FB3448344B354D0360354B4FF07E57CF
:101B900045608760C360047402F00AFB3148324B31
:101BA000C560324D03604FF0814343608760047429
:101BB00002F0FEFA284611F0FBFD2D4B05F29C6069
:101BC0002B604FF0FF33C5F8983621461022C5F838
:101BD0009066C5F8946611F0EBFEF8BDAFF3008097
:101BE000F1C6A7C1D068080FF017304A39059E56D4
:101BF0009AC8BD1234C4C7CD7162D977642A274907
:101C000000260020C025002051710008A8130020E4
:101C10000EBA010829BA0108F0250020402500204D
:101C200039BA0108CC820020A882002065C80108CA
:101C3000C8820020888200208EC80108288A0020DF
:101C40005AC9010800247449608300206BC9010847
:101C50000000F841488300207CC901080000C84208
:101C600000007A45088300208AC901087883002093
:101C700038C801080000000000000000000000005B
:101C8000F8B50FF0DDFF037A0546002B33D1224A69
:101C90002248136813F0010310D121490360037532
:101CA0004FF0FF3300260027836101230161136099
:101CB000C0E902671B491C4A11F052FD174C284627
:101CC000214610F04DF8A8B911A3D3E90023C4E9C7
:101CD0000223164B206023610123237540F2551324
:101CE00028462146A36110F03BF818B92846214642
:101CF00010F05EF810B10E4810F0BAFA0FF0A0FF25
:101D0000012105F0C5FC0028F5D1F8BDAFF3008036
:101D1000F1C6A7C1D068080F00260020C02500200A
:101D2000A2B6010851710008A81300200EBA0108DC
:101D300029BA0108000000000000000000000000B7
:101D4000F8B50FF07DFF037A0546002B31D11E4A0E
:101D50001E48136813F0010310D11D490360037579
:101D60004FF0FF33002600278361012301611360D8
:101D7000C0E902671749184A11F0F2FC134C2846D3
:101D800021460FF0EDFF98B90DA3D3E90023C4E974
:101D90000223124B2060236101232375A36128468F
:101DA00021460FF0DDFF18B92846214610F000F853
:101DB00010B10B4810F05CFAF8BD00BFAFF3008023
:101DC000401DA12026812A0B74450020F0440020EC
:101DD000A2B6010851710008A8130020E6C401084A
:101DE00029BA010800000000000000000000000007
:101DF000094B10221A70094B18221A70084B1E2228
:101E00001A70084B01221A70074B1F221A70074BD9
:101E100000221A70704700BFDA900020D89000208E
:101E2000DC900020DD900020D9900020DB90002085
:101E3000044A05480023C0E900230449044A11F07C
:101E40008FBC00BF80841E00E0900020F18200085B
:101E5000A8130020000000000000000000000000A7
:101E60002DE970430FF0ECFE037A0646002B34D1C7
:101E70005F4A6048136813F0010310D15E490360A4
:101E800003754FF0FF3300240025836101230161B6
:101E90001360C0E902455949594A11F061FC554D9A
:101EA000304629460FF05CFFA8B94DA3D3E90023C3
:101EB000C5E90223534B28602B6101232B7540F2A7
:101EC00055133046AB6129460FF04AFF18B930462A
:101ED00029460FF06DFF044610B14B4810F0C8F9C9
:101EE00001260FF0ADFE314605F0D2FB0028F4D1FB
:101EF0000FF0A6FE022105F043FC0028EDD10FF003
:101F00009FFE43F6FF7105F093FC0028E5D10FF02A
:101F100097FE037A0546002BDFD13C4B3C481A68FC
:101F200012F0010F11D1344A4FF000084FF00009B0
:101F300002614FF0FF3282610460C0E902890475DA
:101F40002E492F4A1E6011F00BFC314C28462146C9
:101F50000FF006FF98B924A3D3E90023C4E90223B4
:101F60002C4B2060236105232075A3612846214660
:101F70000FF0F6FE18B9284621460FF019FF002889
:101F8000ABD10FF05DFE042105F0B2FC0028A4D116
:101F9000214811F04DFC2148214B224A0360836007
:101FA000214B4260C3604FF0804303614FF47A627B
:101FB0000023C0E9062342F210720023C0E908237F
:101FC0001A490F4A11F0CCFBBDE8704318480022B3
:101FD0000023C0E900231749094A11F0C1BB00BF23
:101FE000F1C6A7C1D068080FF017304A39059E56D0
:101FF00000260020C0250020A2B60108517100086B
:10200000A81300200EBA010829BA0108F025002003
:102010004025002039BA01086C9100200891002069
:102020000AD7233C0AD7A33C0000964301230108AA
:10203000389100208122010800000000000000000B
:102040002DE970430FF0FCFD037A0646002B34D1D6
:102050004D4A4E48136813F0010310D14C490360F8
:1020600003754FF0FF3300240025836101230161D4
:102070001360C0E902454749474A11F071FB434DDF
:10208000304629460FF06CFEA8B93BA3D3E90023E4
:10209000C5E90223414B28602B6101232B7540F2D7
:1020A00055133046AB6129460FF05AFE18B9304639
:1020B00029460FF07DFE044610B1394810F0D8F8DB
:1020C00001260FF0BDFD314605F0E2FA0028F4D1FB
:1020D0000FF0B6FD022105F053FB0028EDD10FF003
:1020E000AFFD43F6FF7105F0A3FB0028E5D10FF02B
:1020F000A7FD037A0546002BDFD12A4B2A481A6830
:1021000012F0010F11D1224A4FF000084FF00009E0
:1021100002614FF0FF3282610460C0E902890475F8
:102120001C491D4A1E6011F01BFB1F4C284621460E
:102130000FF016FE98B912A3D3E90023C4E90223D5
:102140001A4B2060236105232075A3612846214690
:102150000FF006FE18B9284621460FF029FE002888
:10216000ABD10FF06DFD042105F0C2FB0028A4D116
:10217000BDE87083AFF30080F1C6A7C1D068080F37
:10218000F017304A39059E5600260020C025002051
:10219000A2B6010851710008A81300200EBA010868
:1021A00029BA0108F02500204025002039BA01088D
:1021B0002DE970430FF044FD037A0646002B34D11D
:1021C0004D4A4E48136813F0010310D14C49036087
:1021D00003754FF0FF330024002583610123016163
:1021E0001360C0E902454749474A11F0B9FA434D27
:1021F000304629460FF0B4FDA8B93BA3D3E900232C
:10220000C5E90223414B28602B6101232B7540F265
:1022100055133046AB6129460FF0A2FD18B9304680
:1022200029460FF0C5FD044610B1394810F020F8DA
:1022300001260FF005FD314605F02AFA0028F4D1F9
:102240000FF0FEFC022105F09BFA0028EDD10FF003
:10225000F7FC43F6FF7105F0EBFA0028E5D10FF02B
:10226000EFFC037A0546002BDFD12A4B2A481A6877
:1022700012F0010F11D1224A4FF000084FF000096F
:1022800002614FF0FF3282610460C0E90289047587
:102290001C491D4A1E6011F063FA1F4C2846214656
:1022A0000FF05EFD98B912A3D3E90023C4E902231D
:1022B0001A4B2060236105232075A361284621461F
:1022C0000FF04EFD18B9284621460FF071FD002889
:1022D000ABD10FF0B5FC042105F00AFB0028A4D116
:1022E000BDE87083AFF30080F1C6A7C1D068080FC6
:1022F000F017304A39059E5600260020C0250020E0
:10230000A2B6010851710008A81300200EBA0108F6
:1023100029BA0108F02500204025002039BA01081B
:1023200000207047000000000000000000000000D6
:10233000844641EA000313F0030349D1403A23D312
:102340000B6803604B6843608B688360CB68C36035
:102350000B6903614B6943618B698361CB69C3611D
:102360000B6A03624B6A43628B6A8362CB6AC36205
:102370000B6B03634B6B43638B6B8363CB6BC363ED
:1023800040304031403ADBD230320BD30B6803602F
:102390004B6843608B688360CB68C360103010313A
:1023A000103AF3D20C3205D351F8043B40F8043B09
:1023B000043AF9D2043208D0D2071CBF11F8013B0D
:1023C00000F8013B01D30B8803806046704700BFD3
:1023D000082A13D38B07B1D010F00303AED0C3F19A
:1023E0000403D21ADB071CBF11F8013B00F8013BC4
:1023F000A4D331F8023B20F8023B9FE7043AD9D33B
:10240000013A11F8013B00F8013BF9D20B78037057
:102410004B7843708B7883706046704700000000F3
:1024200080EA010C1CF0030F37D110F0030C20F0F0
:10243000030021F0030150F8042B08BF51F8043BBE
:102440000ED08CF0030C6FF07F434FEACC0C23FAD4
:102450000CFC51F8043B42EA0C0243EA0C0300BFB7
:10246000A2F1013C9A4201BF2CEA020C1CF0803F11
:1024700050F8042B51F8043BF2D04FEA02604FEAC7
:102480001222012828BFB0EB036F08BF1B0AF4D04B
:1024900003F0FF03000EC01A704710F0030F0AD0BC
:1024A00010F8012B11F8013B012A28BF9A42F4D001
:1024B000A2EB030070474DF8045D50F8042B01F0C7
:1024C000030521F0030151F8043B022D26D04DD81D
:1024D00022F07F45B5EB132FA2F1013C2CEA020C50
:1024E0000DD11CF0803C08BF51F8043B0AD185EAAD
:1024F0000205B5EB036F0CD150F8042BE8E74FEA67
:1025000013235BE03CF07F4C54D10B784FEA12650B
:1025100054E04FEA126503F0FF034FE04FEA024533
:10252000A2F1013C4FEA15452CEA020CB5EB134F22
:1025300018D11CF0803C08BF51F8043B07D185EA54
:102540000205B5EB034F09D150F8042BE6E75FEA2B
:102550000C4C2FD10B884FEA12452FE04FEA034372
:102560004FEA12454FEA134328E000BF02F0FF058F
:10257000B5EB136FA2F1013C2CEA020C0DD11CF05B
:10258000803C08BF51F8043B0AD185EA0205B5EB4F
:10259000032F0AD150F8042BE8E74FEA13630DE04C
:1025A00012F0FF0F06D051F8043B4FEA122523F03A
:1025B0007F4303E04FF0000020BC704705F0FF02AE
:1025C00003F0FF00012828BF904204BF2D0A1B0A18
:1025D000F4D0A2EB000020BC704700BF0000000058
:1025E000D0400B1CD1409C46203AD3401843524265
:1025F000634693401843704700000000000000004D
:1026000081F0004102E000BF83F0004330B54FEAA3
:1026100041044FEA430594EA050F08BF90EA020F10
:102620001FBF54EA000C55EA020C7FEA645C7FEAA3
:10263000655C00F0E2804FEA5454D4EB5555B8BFC6
:102640006D420CDD2C4480EA020281EA030382EA37
:10265000000083EA010180EA020281EA0303362DC9
:1026600088BF30BD11F0004F4FEA01314FF4801C9C
:102670004CEA113102D0404261EB410113F0004FAE
:102680004FEA03334CEA133302D0524263EB430365
:1026900094EA050F00F0A780A4F10104D5F1200E03
:1026A0000DDB02FA0EFC22FA05F2801841F100015E
:1026B00003FA0EF2801843FA05F359410EE0A5F132
:1026C00020050EF1200E012A03FA0EFC28BF4CF063
:1026D000020C43FA05F3C01851EBE37101F0004519
:1026E00007D54FF0000EDCF1000C7EEB00006EEB26
:1026F0000101B1F5801F1BD3B1F5001F0CD34908B0
:102700005FEA30004FEA3C0C04F101044FEA445206
:1027100012F5800F80F09A80BCF1004F08BF5FEA8D
:10272000500C50F1000041EB045141EA050130BD6D
:102730005FEA4C0C404141EB010111F4801FA4F110
:102740000104E9D191F0000F04BF01460020B1FA65
:1027500081F308BF2033A3F10B03B3F120020CDA9D
:102760000C3208DD02F1140CC2F10C0201FA0CF07B
:1027700021FA02F10CE002F11402D8BFC2F1200CE0
:1027800001FA02F120FA0CFCDCBF41EA0C01904096
:10279000E41AA2BF01EB0451294330BD6FEA0404DF
:1027A0001F3C1CDA0C340EDC04F11404C4F12002CA
:1027B00020FA04F001FA02F340EA030021FA04F3DC
:1027C00045EA030130BDC4F10C04C4F1200220FA33
:1027D00002F001FA04F340EA0300294630BD21FA71
:1027E00004F0294630BD94F0000F83F4801306BF37
:1027F00081F480110134013D4EE77FEA645C18BF2B
:102800007FEA655C29D094EA050F08BF90EA020FC1
:1028100005D054EA000C04BF1946104630BD91EAB9
:10282000030F1EBF0021002030BD5FEA545C05D1BC
:102830004000494128BF41F0004130BD14F58004FB
:102840003CBF01F5801130BD01F0004545F0FE416F
:1028500041F470014FF0000030BD7FEA645C1ABFA4
:10286000194610467FEA655C1CBF0B46024650EADB
:10287000013406BF52EA033591EA030F41F4002107
:1028800030BD00BF90F0000F04BF0021704730B58D
:102890004FF4806404F132044FF000054FF0000162
:1028A00050E700BF90F0000F04BF0021704730B523
:1028B0004FF4806404F1320410F0004548BF4042F8
:1028C0004FF000013EE700BF42004FEAE2014FEA4D
:1028D00031014FEA02701FBF12F07F4393F07F4F28
:1028E00081F06051704792F0000F14BF93F07F4F5A
:1028F000704730B54FF4607401F0004521F000419D
:1029000020E700BF50EA010208BF704730B54FF022
:1029100000050AE050EA010208BF704730B511F027
:10292000004502D5404261EB41014FF4806404F15F
:1029300032045FEA915C3FF4DCAE4FF003025FEAE1
:10294000DC0C18BF03325FEADC0C18BF033202EB69
:10295000DC02C2F1200300FA03FC20FA02F001FAC3
:1029600003FE40EA0E0021FA02F11444C1E600BF62
:1029700070B54FF0FF0C4CF4E06C1CEA11541DBF15
:102980001CEA135594EA0C0F95EA0C0F00F0DEF8E0
:102990002C4481EA030621EA4C5123EA4C5350EAC5
:1029A000013518BF52EA033541F4801143F4801316
:1029B00038D0A0FB02CE4FF00005E1FB02E506F0A7
:1029C0000042E0FB03E54FF00006E1FB03569CF0FC
:1029D000000F18BF4EF0010EA4F1FF04B6F5007F02
:1029E00064F5407404D25FEA4E0E6D4146EB060674
:1029F00042EAC62141EA55514FEAC52040EA5E50FD
:102A00004FEACE2EB4F1FD0C88BFBCF5E06F1ED8A6
:102A1000BEF1004F08BF5FEA500E50F1000041EBDD
:102A2000045170BD06F0004646EA010140EA02008A
:102A300081EA0301B4EB5C04C2BFD4EB0C0541EAAC
:102A4000045170BD41F480114FF0000E013C00F3C1
:102A5000AB8014F1360FDEBF002001F0004170BDE5
:102A6000C4F10004203C35DA0C341BDC04F11404FE
:102A7000C4F1200500FA05F320FA04F001FA05F28A
:102A800040EA020001F0004221F0004110EBD37057
:102A900021FA04F642EB06015EEA430E08BF20EA83
:102AA000D37070BDC4F10C04C4F1200500FA04F326
:102AB00020FA05F001FA04F240EA020001F00041B8
:102AC00010EBD37041F100015EEA430E08BF20EA2B
:102AD000D37070BDC4F1200500FA05F24EEA020E73
:102AE00020FA04F301FA05F243EA020321FA04F0A2
:102AF00001F0004121FA04F220EA020000EBD37059
:102B00005EEA430E08BF20EAD37070BD94F0000F58
:102B10000FD101F00046400041EB010111F4801F8C
:102B200008BF013CF7D041EA060195F0000F18BF3D
:102B3000704703F00046520043EB030313F4801F79
:102B400008BF013DF7D043EA0603704794EA0C0F33
:102B50000CEA135518BF95EA0C0F0CD050EA410649
:102B600018BF52EA4306D1D181EA030101F00041C6
:102B70004FF0000070BD50EA410606BF10461946EE
:102B800052EA430619D094EA0C0F02D150EA0136FA
:102B900013D195EA0C0F05D152EA03361CBF10463B
:102BA00019460AD181EA030101F0004141F0FE41DA
:102BB00041F470014FF0000070BD41F0FE4141F45E
:102BC000780170BD70B54FF0FF0C4CF4E06C1CEA5E
:102BD00011541DBF1CEA135594EA0C0F95EA0C0F13
:102BE00000F0A7F8A4EB050481EA030E52EA0335CE
:102BF0004FEA013100F088804FEA03334FF08055EF
:102C000045EA131343EA12634FEA022245EA11151B
:102C100045EA10654FEA00260EF000419D4208BFCC
:102C2000964244F1FD0404F5407402D25B084FEA79
:102C30003202B61A65EB03055B084FEA32024FF425
:102C400080104FF4002CB6EB020E75EB030E22BF82
:102C5000B61A754640EA0C005B084FEA3202B6EB42
:102C6000020E75EB030E22BFB61A754640EA5C00F1
:102C70005B084FEA3202B6EB020E75EB030E22BF81
:102C8000B61A754640EA9C005B084FEA3202B6EB82
:102C9000020E75EB030E22BFB61A754640EADC0041
:102CA00055EA060E18D04FEA051545EA16754FEAA3
:102CB00006164FEAC30343EA52734FEAC2025FEAC1
:102CC0001C1CC0D111F4801F0BD141EA00014FF050
:102CD00000004FF0004CB6E711F4801F04BF014321
:102CE0000020B4F1FD0C88BFBCF5E06F3FF6AFAE3D
:102CF000B5EB030C04BFB6EB020C5FEA500C50F1CD
:102D0000000041EB045170BD0EF0004E4EEA11314F
:102D100014EB5C04C2BFD4EB0C0541EA045170BD56
:102D200041F480114FF0000E013C90E645EA060E9A
:102D30008DE60CEA135594EA0C0F08BF95EA0C0FC8
:102D40003FF43BAF94EA0C0F0AD150EA01347FF410
:102D500034AF95EA0C0F7FF425AF104619462CE7E7
:102D600095EA0C0F06D152EA03353FF4FDAE10464A
:102D7000194622E750EA410618BF52EA43067FF49B
:102D8000C5AE50EA41047FF40DAF52EA43057FF42B
:102D9000EBAE12E7000000000000000000000000A1
:102DA0004FF0FF3C06E000BF4FF0010C02E000BF17
:102DB0004FF0010C4DF804CD4FEA410C7FEA6C5CFA
:102DC0004FEA430C18BF7FEA6C5C1BD001B050EA9D
:102DD000410C0CBF52EA430C91EA030F02BF90EA88
:102DE000020F0020704710F1000F91EA030F58BF47
:102DF000994208BF90422CBFD8176FEAE37040F0A9
:102E0000010070474FEA410C7FEA6C5C02D150EA46
:102E1000013C07D14FEA430C7FEA6C5CD6D152EA01
:102E2000033CD3D05DF8040B704700BF84461046C6
:102E300062468C461946634600E000BF01B5FFF7C5
:102E4000B7FF002848BF10F1000F01BD4DF808ED95
:102E5000FFF7F4FF0CBF012000205DF808FB00BF66
:102E60004DF808EDFFF7EAFF34BF012000205DF8C0
:102E700008FB00BF4DF808EDFFF7E0FF94BF01200D
:102E800000205DF808FB00BF4DF808EDFFF7CEFF0E
:102E900094BF012000205DF808FB00BF4DF808ED4D
:102EA000FFF7C4FF34BF012000205DF808FB00BF1E
:102EB0004FEA410212F5001215D211D56FF4787362
:102EC000B3EB625212D94FEAC12343F0004343EA05
:102ED000505311F0004F23FA02F018BF40427047E0
:102EE0004FF00000704750EA013005D111F000406A
:102EF00008BF6FF0004070474FF00000704700BF00
:102F00004A0011D212F5001211D20DD56FF4787368
:102F1000B3EB62520ED44FEAC12343F0004343EABD
:102F2000505323FA02F070474FF00000704750EA08
:102F3000013002D14FF0FF3070474FF00000704772
:102F40004FEA4102B2F1E04324BFB3F5001CDCF1CB
:102F5000FE5C0DD901F0004C4FEAC0024CEA507003
:102F6000B2F1004F40EB830008BF20F00100704732
:102F700011F0804F21D113F13872BCBF01F0004035
:102F8000704741F480114FEA5252C2F11802C2F167
:102F9000200C10FA0CF320FA02F018BF40F00100E8
:102FA0004FEAC1234FEAD32303FA0CFC40EA0C009A
:102FB00023FA02F34FEA4303CCE77FEA625307D1D7
:102FC00050EA01331EBF4FF0FE4040F4400070470E
:102FD00001F0004040F0FE4040F40000704700BFA8
:102FE00080F0004002E000BF81F0004142001FBFBE
:102FF0005FEA410392EA030F7FEA226C7FEA236CC7
:103000006AD04FEA1262D2EB1363C1BFD2184140BB
:1030100048404140B8BF5B42192B88BF704710F051
:10302000004F40F4000020F07F4018BF404211F0F4
:10303000004F41F4000121F07F4118BF494292EA5C
:10304000030F3FD0A2F1010241FA03FC10EB0C0088
:10305000C3F1200301FA03F100F0004302D5494215
:1030600060EB4000B0F5000F13D3B0F1807F06D3C2
:1030700040084FEA310102F10102FE2A51D2B1F1BA
:10308000004F40EBC25008BF20F0010040EA0300AF
:103090007047490040EB000010F4000FA2F101025C
:1030A000EDD1B0FA80FCACF1080CB2EB0C0200FAE6
:1030B0000CF0AABF00EBC25052421843BCBFD04034
:1030C0001843704792F0000F81F4000106BF80F4AE
:1030D00000000132013BB5E74FEA41037FEA226C71
:1030E00018BF7FEA236C21D092EA030F04D092F03C
:1030F000000F08BF0846704790EA010F1CBF002070
:10310000704712F07F4F04D1400028BF40F00040CC
:10311000704712F100723CBF00F50000704700F0EC
:10312000004343F0FE4040F4000070477FEA226213
:1031300016BF08467FEA23630146420206BF5FEAE4
:10314000412390EA010F40F4800070474FF00003E4
:1031500004E000BF10F0004348BF40425FEA000CAB
:1031600008BF704743F0964301464FF000001CE053
:1031700050EA010208BF70474FF000030AE000BFA9
:1031800050EA010208BF704711F0004302D54042E7
:1031900061EB41015FEA010C02BF84460146002059
:1031A00043F0B64308BFA3F18053A3F50003BCFA74
:1031B0008CF2083AA3EBC25310DB01FA02FC634421
:1031C00000FA02FCC2F12002BCF1004F20FA02F228
:1031D00043EB020008BF20F00100704702F120021B
:1031E00001FA02FCC2F1200250EA4C0021FA02F27C
:1031F00043EB020008BF20EADC70704700000000CB
:103200004FF0FF0C1CEAD0521EBF1CEAD15392EAC9
:103210000C0F93EA0C0F6FD01A4480EA010C4002A5
:1032200018BF5FEA41211ED04FF0006343EA5010FF
:1032300043EA5111A0FB01310CF00040B1F5000F41
:103240003EBF490041EAD3715B0040EA010062F1F0
:103250007F02FD2A1DD8B3F1004F40EBC25008BFDA
:1032600020F00100704790F0000F0CF0004C08BFF8
:1032700049024CEA502040EA51207F3AC2BFD2F1C5
:10328000FF0340EAC250704740F400004FF00003D3
:10329000013A5DDC12F1190FDCBF00F0004070470D
:1032A000C2F10002410021FA02F1C2F1200200FA4B
:1032B00002FC5FEA310040F1000053EA4C0308BF12
:1032C00020EADC70704792F0000F00F0004C02BF63
:1032D000400010F4000F013AF9D040EA0C0093F0DE
:1032E000000F01F0004C02BF490011F4000F013B38
:1032F000F9D041EA0C018FE70CEAD15392EA0C0FA6
:1033000018BF93EA0C0F0AD030F0004C18BF31F010
:10331000004CD8D180EA010000F00040704790F0E6
:10332000000F17BF90F0004F084691F0000F91F08A
:10333000004F14D092EA0C0F01D142020FD193EA50
:103340000C0F03D14B0218BF084608D180EA0100D8
:1033500000F0004040F0FE4040F40000704740F0B4
:10336000FE4040F4400070474FF0FF0C1CEAD05282
:103370001EBF1CEAD15392EA0C0F93EA0C0F69D0DE
:10338000A2EB030280EA010C49024FEA402037D049
:103390004FF0805343EA111143EA10130CF0004040
:1033A0008B4238BF5B0042F17D024FF4000C8B4230
:1033B00024BF5B1A40EA0C00B3EB510F24BFA3EB10
:1033C000510340EA5C00B3EB910F24BFA3EB9103E0
:1033D00040EA9C00B3EBD10F24BFA3EBD10340EA3A
:1033E000DC001B0118BF5FEA1C1CE0D1FD2A3FF680
:1033F00050AF8B4240EBC25008BF20F00100704735
:103400000CF0004C4CEA50207F32C2BFD2F1FF03D7
:1034100040EAC250704740F400004FF00003013A08
:1034200037E792F0000F00F0004C02BF400010F4AC
:10343000000F013AF9D040EA0C0093F0000F01F0C0
:10344000004C02BF490011F4000F013BF9D041EAE2
:103450000C0195E70CEAD15392EA0C0F08D1420215
:103460007FF47DAF93EA0C0F7FF470AF084676E7E8
:1034700093EA0C0F04D14B023FF44CAF08466EE7C1
:1034800030F0004C18BF31F0004CCAD130F000428F
:103490007FF45CAF31F000437FF43CAF5FE700BFE7
:1034A0004FF0FF3C06E000BF4FF0010C02E000BF10
:1034B0004FF0010C4DF804CD4FEA40024FEA4103B2
:1034C0007FEA226C18BF7FEA236C11D001B052EA68
:1034D000530C18BF90EA010F58BFB2EB030088BF2E
:1034E000C81738BF6FEAE17018BF40F0010070479D
:1034F0007FEA226C02D15FEA402C05D17FEA236C7F
:10350000E4D15FEA412CE1D05DF8040B704700BFC5
:10351000844608466146FFE70FB5FFF7C9FF00285C
:1035200048BF10F1000F0FBD4DF808EDFFF7F4FF95
:103530000CBF012000205DF808FB00BF4DF808ED2E
:10354000FFF7EAFF34BF012000205DF808FB00BF51
:103550004DF808EDFFF7E0FF94BF012000205DF873
:1035600008FB00BF4DF808EDFFF7D2FF94BF012024
:1035700000205DF808FB00BF4DF808EDFFF7C8FF1D
:1035800034BF012000205DF808FB00BF00000000F0
:103590004FEA40024FEA41037FEA226C02D15FEA20
:1035A000402C08D17FEA236C02D15FEA412C02D182
:1035B0004FF0000070474FF001007047000000001E
:1035C0004FEA4002B2F1FE4F0FD34FF09E03B3EB30
:1035D00012620DD94FEA002343F0004310F0004F70
:1035E00023FA02F018BF404270474FF000007047C6
:1035F00012F1610F01D1420205D110F0004008BF65
:103600006FF0004070474FF000007047000000006E
:1036100042000ED2B2F1FE4F0BD34FF09E03B3EB3C
:10362000126209D44FEA002343F0004323FA02F068
:1036300070474FF00000704712F1610F01D1420254
:1036400002D14FF0FF3070474FF00000704700BFCD
:103650007BB972B90029BEBF00204FF0004106E0DF
:1036600008BF00281CBF6FF000414FF0FF3000F092
:10367000D7B882B0EC462DE9005000F0A1F8DDF893
:1036800004E002B00CBC7047000000000000000025
:1036900053B94AB9002908BF00281CBF4FF0FF31B9
:1036A0004FF0FF3000F0BCB882B0EC462DE900507E
:1036B00000F09EF8DDF804E002B00CBC704700BFDB
:1036C00010B500210446FFF739FF20B92046BDE8B8
:1036D000104000F025B804F1004000F021F840420D
:1036E00061EB410110BD00BF0000000000000000C0
:1036F000F8B50022002307460E46FFF7B1FB28B9B4
:1037000038463146BDE8F84000F032B8384606F198
:10371000004100F02DF8404261EB4101F8BD00BFCF
:10372000D0B5FFF7D1F800220E4B06460F46FFF743
:103730001FF9FFF7E5FB0446FFF7A4F800220A4B48
:10374000FFF716F902460B4630463946FEF75CFF96
:10375000FFF7D6FB2346002242EA00021046194634
:10376000D0BD00BF0000F03D0000F04100000000AF
:10377000D0B500220E4B06460F46FFF7F9F8FFF7CB
:10378000BFFB0446FFF77EF800220A4BFFF7F0F874
:1037900002460B4630463946FEF736FFFFF7B0FBD0
:1037A0002346002242EA000210461946D0BD00BF5F
:1037B0000000F03D0000F0410000000000000000AB
:1037C0002DE9F041069C904606460F461D4600F046
:1037D0002FF808FB01FCA8FB002300FB05C5B21A6B
:1037E0002B4467EB03038646C4E90023BDE8F08160
:1037F0002DE9F843089E1746804689461D4600F08D
:103800006FF900FB05F3A0FB074507FB0137B8EB99
:1038100004043D4469EB0505C6E90045BDE8F883AD
:10382000704700BF00000000000000000000000022
:1038300000292DE9F043C0F2A8800026002BC0F239
:103840009E8081468E4690469C46174604460D460D
:10385000002B3DD18A4259D9B2FA82F33BB1C3F170
:1038600020029D4020FA02F29F4015439C40390CF3
:10387000B5FBF1F01FFA87FE01FB10550EFB00F3BC
:10388000220C42EA0545AB4209D9ED1900F1FF329D
:1038900080F00B81AB4240F2088102383D44ED1AC2
:1038A000B5FBF1F301FB13550EFB03FEA4B244EA92
:1038B0000545AE4508D9ED1903F1FF3280F0F780D8
:1038C000AE4540F2F480023B43EA0043002203E0AD
:1038D0008B420FD900221346341C18BF01246042CA
:1038E0004FF0000565EB4501584051400019694112
:1038F000BDE8F083B3FA83F2002A40F089808B425E
:1039000002D3804500F2E2800123E5E712B90123EA
:10391000B3FBF2F7B7FA87F8B8F1000F3BD1ED1B14
:103920004FEA174C1FFA87FE0122B5FBFCF00CFB97
:1039300010550EFB00F3210C41EA0545AB4207D9B7
:10394000ED1900F1FF3102D2AB4200F2C38008460C
:10395000ED1AB5FBFCF30CFB13550EFB03FEA4B2F2
:1039600044EA0545AE4507D9ED1903F1FF3102D20E
:10397000AE4500F2AD800B4643EA0043ACE752424D
:103980006FEA060663EB43035BE7404261EB4101EC
:103990004FF0FF3652E707FA08F7C8F1200225FA80
:1039A00002F34FEA174CB3FBFCF11FFA87FE0CFB46
:1039B000113324FA02F205FA08F50EFB01F92A4345
:1039C000100C40EA0343994504FA08F407D9DB19BF
:1039D00001F1FF3078D2994576D902393B44C9EBE1
:1039E0000303B3FBFCF00CFB10330EFB00F592B2AB
:1039F00042EA03439D4207D9DB1900F1FF325FD24F
:103A00009D425DD902383B445D1B40EA01428CE790
:103A1000C2F1200328FA03F10CFA02FC41EA0C0C73
:103A20004FEA1C402EFA03F1B1FBF0F51FFA8CF7B8
:103A300000FB151129FA03F30EFA02FE07FB05F944
:103A400043EA0E0E4FEA1E4343EA0141894508FA54
:103A500002F808D911EB0C0105F1FF3332D2894588
:103A600030D9023D6144C9EB0101B1FBF0F300FB29
:103A7000131107FB03F71FFA8EFE4EEA014E77453E
:103A800008D91EEB0C0E03F1FF3117D2774515D97B
:103A9000023BE64443EA0543A3FB0889C7EB0E0E4D
:103AA000CE4509D305D0002216E71046F7E61346A7
:103AB0000AE794404445F6D2013BF4E70B46E9E7B8
:103AC0001046A1E71D46CEE7014688E7134603E707
:103AD000023B51E702383D443AE700BF00000000D6
:103AE0002DE9F043002B44D18A42154604464FD9B4
:103AF000B2FA82F70E464FB1C7F12003B94020FA5F
:103B000003F602FA07F50E4300FA07F42F0CB6FB92
:103B1000F7F01FFA85FE07FB10620EFB00F1260C82
:103B200046EA0243994209D95B1900F1FF3280F05D
:103B3000EE80994240F2EB8002382B44591AB1FBD7
:103B4000F7F307FB13110EFB03FEA4B244EA014195
:103B50008E4508D9491903F1FF3280F0DA808E458D
:103B600040F2D780023B43EA004000263146BDE8E0
:103B7000F0838B4247D8B3FA83F6002E48D18B42AC
:103B800002D3824200F2CF8001203146BDE8F083AB
:103B900012B90125B5FBF2F5B5FA85FCBCF1000FB1
:103BA00078D1491B2F0C1FFA85FE0126B1FBF7F0D7
:103BB00007FB10110EFB00F2230C43EA01418A427D
:103BC00007D9491900F1FF3302D28A4200F2BC80C2
:103BD0001846891AB1FBF7F307FB13110EFB03FE1E
:103BE000A4B244EA0142964508D9521903F1FF31C3
:103BF00080F09180964540F28E80023B43EA00407F
:103C00003146BDE8F083002630463146BDE8F083FA
:103C1000C6F1200422FA04F5B3402B4321FA04F73D
:103C20004FEA1348B7FBF8FC1FFA83F908FB1C772F
:103C300020FA04FE01FA06F509FB0CF44EEA05052C
:103C40004FEA154E4EEA0747BC4202FA06F204D983
:103C5000FF180CF1FF3168D38C463F1BB7FBF8F41B
:103C600008FB147709FB04F9ADB245EA0741894521
:103C700004D9C91804F1FF355DD32C4644EA0C443D
:103C8000A4FB0223C9EB0101994249D345D0204648
:103C900000266BE7CCF1200405FA0CF521FA04F3B9
:103CA0002A0CB3FBF2F61FFA85FE02FB163820FA47
:103CB00004F701FA0CF10EFB06F90F433C0C44EA41
:103CC0000843994500FA0CF407D95B1906F1FF3156
:103CD00038D2994536D9023E2B44C9EB0303B3FBD6
:103CE000F2F002FB10330EFB00F1BFB247EA0343D0
:103CF000994207D95B1900F1FF3721D299421FD9A8
:103D000002382B441746591A40EA06464EE7104639
:103D100014E7134627E70B4670E7B0409042B6D24F
:103D2000601E002622E7304620E7BC4294D9ACF161
:103D3000020C1F4491E789459FD9023C19449DE735
:103D40003846DFE70E46C8E70238294441E700BF9E
:103D50002DE9F041074686B00E4609B9002045E03E
:103D60000025244806AC8DF815508DF816508DF8B6
:103D7000175001F03DFE04F8047D01950DF1150783
:103D80000525009702951B4877212246012301F063
:103D90000FFE8046174801F033FEB8F1000FDDD169
:103DA0000A2001F0ADFA134801F022FE032301932B
:103DB0002246009702950F48772101238DF8148041
:103DC00001F0F6FD04460B4801F01AFE002CC5D1A7
:103DD0009DF816009DF81530000240EA03409DF85A
:103DE000173018433060003018BF012006B0BDE81E
:103DF000F08100BF781700200000000000000000E4
:103E00002DE9F04F87B04FF0000B82460291482019
:103E100004A90392CDF810B0CDF814B0FFF798FFC5
:103E200008B900208AE0582005A9FFF791FF002873
:103E3000F7D0BAF80A30059ABAF80C40A2EB032280
:103E400082FB0445BAF80660E30D82FB0667BAF808
:103E500002404FF00009A4B24FEAC438340A44EAE1
:103E6000076418EB040643EA45234FEA272549EB8C
:103E70000507CDE900674F46BAF80880BAF8044054
:103E800082FB088926044FEAD81444EA496416EBF9
:103E9000040A03F5FA614FEAE91547EB050BB1F5A2
:103EA000FA6F35DAB1F5FA664FF0050EA6FB0E454E
:103EB0004FEAE17747F1FF370EFB075552435FEAC0
:103EC00065094FEA3408A6081E4CD217A14246EAFB
:103ED00085764FEAA5070EDA03F6AC5404FB04F32B
:103EE0000724C4FB03890B2483FB04456D104FEAB0
:103EF000340436196F41BAEB080AA1EB02016BEBEF
:103F0000090BDDE90023921B63EB0703CDE90023D6
:103F1000049C009B019DA4FB032304FB0533540D6B
:103F200044EAC3245D15B4EB0A0465EB0B05E30B0F
:103F3000029A43EA45431360039B196007B0BDE84A
:103F4000F08F00BF24FAFFFF000000000000000017
:103F500070B5104D86B006AC1E23284604F8013D0E
:103F6000052601F045FD00232246772100940193A8
:103F700002960123284601F01BFD0446284601F065
:103F80003FFD304601F0BCF9B4FA84F0F04006B0D1
:103F900070BD00BF78170020000000000000000086
:103FA000F0B5054687B0002606F150035B000024FB
:103FB0002D488DF815308DF816408DF8174001F01A
:103FC00017FD0DF1160300930223019305230293BD
:103FD000254877210DF11502012301F0E9FC074680
:103FE000214801F00DFD0FB120463BE09DF8162061
:103FF0009DF8173043EA022325F816300136082EC3
:10400000D2D1EC89384624F0FF03EB813B4602B263
:1040100010F0010F4FEA620205D015F8122053404C
:104020009BB2082204E035F8122083EA1223F7E756
:1040300013F4004F4FEA430318BF83F4405302F1D7
:10404000FF3218BF9BB212F0FF029BB2F0D10130D9
:104050001028DCD1EC81C3F30F3304F00F04E31A12
:104060005842584107B0F0BD78170020000000000A
:1040700070B5054670B10A4B00241E68B44209DAD7
:10408000084B294653F824301868FEF7C9F920B1C7
:104090000134F3E74FF0FF3070BD204670BD00BF24
:1040A000EC110020001200200000000000000000C1
:1040B00008B50146084800F0D3FC084B1A680023F5
:1040C000934208DA064951F823104868054941F837
:1040D00023000133F4E708BDC0B00108EC11002053
:1040E000001200204C110020000000000000000021
:1040F00073B5064608460D460FF09AFF012832D9DF
:10410000337C012B12D01DD3022B2CD12846002149
:10411000FFF70AFA48BB28464FF07E514FF00104E2
:10412000FFF702FA00B90446E0B21FE02846FFF7A5
:1041300047FA01900198FFF70DF801462846FFF76E
:10414000F3F980B12846F168FFF716FA58B9284606
:10415000B1684FF00104FFF7F1F900B9044684F0AB
:104160000100C0B202E0002000E0012002B070BDFA
:104170000022134630B582420DDA0849515C4B40AB
:104180000821074C43F300052C40013984EA53030E
:10419000F7D10132EFE7184630BD00BF4C110020C7
:1041A0002083B8ED000000000000000000000000C7
:1041B000F8B5364B04461B78002B65D100285BD040
:1041C0000368002B58D0324E3368272B06DD314A66
:1041D000314B1A6000F094FC00F0A2FD20466168AB
:1041E000FFF786FF30B92D4A2B4B1A6000F088FC90
:1041F00000F096FD2068FFF73BFF002806DB284A09
:10420000254B1A6000F07CFC00F08AFD35686B1CC1
:104210003360244B53F825201F4632B1224A1E4BEF
:104220001A6000F06DFC00F07BFD204E002156F876
:104230002500FFF779F930B91D4A174B1A6000F0D5
:104240005FFC00F06DFD47F825406368226846F882
:104250002530013A12F8011F69B1164C23684B4012
:104260000821154843F300052840013980EA53032B
:10427000F7D12360EEE7F8BD104A074B1A6000F053
:104280003FFC00F04DFD9EE7F8BD00BF4811002047
:10429000EC110020E4B00108AC13002016B10108B5
:1042A00048B10108001200207AB101084C11002029
:1042B000ACB10108A01200202083B8EDDEB10108E6
:1042C0002DE9FF473E4D2B68282B06DD3D4A3E4B2E
:1042D0001A6000F015FC00F023FD3C4B1A781C46D8
:1042E00032B13B4A384B1A6000F00AFC00F018FD6E
:1042F00001233848237001F093F8374B04A941F8A3
:10430000083D0020042200F0CBF90446002850D1DB
:10431000324B029A1B689A4249D12E680820B60097
:104320002F49324600F0BCF90446002841D13046FE
:10433000FFF71EFF04A90646042041F8044D02467B
:1043400000F0AEF90446002833D1039B9E4229D1E8
:104350001B4B2448196800F083FB234F234E2B6826
:104360009C4222DA57F8040F56F8041FFFF7C0FEEC
:10437000B0B93068FEF7A8FAD7F800A08046DAF89E
:1043800004008946FEF7A0FACDE900014B46184823
:10439000DAF80010424600F063FB3B685B6833606C
:1043A0000134DCE71348FFF783FE002005E01248E4
:1043B000F9E71248FFF77CFE204604B0BDE8F0871D
:1043C000EC11002010B20108AC13002048110020AD
:1043D00042B20108F0110020EFBEADDEA0120020B5
:1043E0004C11002074B20108FC110020481100207B
:1043F00090B20108B9B20108C6B20108D6B20108EC
:10440000184B37B51B7833B9174A184B1A6000F0B0
:1044100077FB00F085FC164801F052F800F0B8F97F
:104420000446D0B91349042200F05AF90446A0B951
:10443000114B1D68AD002846FFF79AFE02A941F80E
:10444000040D0420024600F04BF9044628B9082068
:104450000A492A4600F044F9044601F041F8204692
:1044600003B030BD48110020E2B20108AC130020B7
:10447000F0110020A0120020EC1100204C110020AF
:104480000A4B10B51B7833B9094A0A4B1A6000F081
:1044900037FB00F045FC084801F012F800F078F90D
:1044A000044601F01DF8204610BD00BF4811002051
:1044B00014B30108AC130020F0110020000000002C
:1044C0000C4B10B51B78044633B90B4A0B4B1A60E2
:1044D00000F016FB00F024FC002C08DB084B1B68E6
:1044E0009C4204DA074B53F82430186810BD0020B2
:1044F00010BD00BF4811002046B30108AC130020D6
:10450000EC1100200012002000000000000000005C
:1045100038B5144B04461B780D4633B9124A134B79
:104520001A6000F0EDFA00F0FBFB114800F0C8FF44
:104530002046FFF79DFD041E0BDB0E4B294653F86A
:104540002400FFF7D5FD38B10B4B43F8245000246D
:1045500004E06FF0010401E06FF0150400F0C0FF0B
:10456000204638BD4811002078B30108AC13002064
:10457000F0110020001200204C110020000000006B
:1045800038B5134B05461B780C4633B9114A124B0C
:104590001A6000F0B5FA00F0C3FBB4B10F4800F0A8
:1045A0008FFF2846FFF764FD0028A9BF0C4B6FF072
:1045B000010453F820500FCDA1BF0FC42B68236016
:1045C000002400F08DFF204638BD6FF0150038BD87
:1045D00048110020AAB30108AC130020F0110020FC
:1045E0000012002000000000000000000000000099
:1045F0000D4B10B51B78044633B90C4A0C4B1A60AE
:1046000000F07EFA00F08CFB0A4800F059FF2046CB
:10461000FFF72EFD0028AABF074B084C53F8204097
:1046200000F05EFF204610BD48110020DCB30108F9
:10463000AC130020F01100204C1100200000C07FBE
:10464000044BDA68D207FBD4DA6842F02002DA6061
:10465000704700BF00200240000000000000000082
:1046600008B5202383F31188FFF7EAFF074B1A6987
:10467000120641BF064A5A6002F188325A60DA686F
:1046800042F03402DA6000221A6108BD00200240C4
:10469000230167450000000000000000000000004A
:1046A00010B50346144681B10444B4F5006F0CD82C
:1046B0000748008803EB8023084603F1FF6101F5FA
:1046C000FF21FDF735FE002010BD6FF0150010BD75
:1046D000E0F7FF1F000000000000000000000000E5
:1046E0002DE9F047054617460E46002945D08318A8
:1046F000B3F5006F41D8CB0703D56FF00400BDE8D8
:10470000F087B2464FEA5208B2EB480F88BF08F173
:104710000108FFF7A5FF1B4B01221A611A4B4FF04E
:1047200000091C8805EB842404F1FF6404F5FF24D0
:10473000A31BC145534407D03AF8022B09F10109E4
:104740001A80FFF77DFFF3E7FFF77AFF0D4A00239A
:1047500080211361116183F311880B4B3046198856
:104760003A4605EB812101F1FF6101F5FF210FF0D0
:104770007FF80028C1D1BDE8F0876FF01500BDE8D3
:10478000F08700BF00200240E0F7FF1F000000009C
:1047900038B5174C174DFFF763FF022323612B88B1
:1047A0009B0203F1FF6303F5FF236361236943F079
:1047B00040032361FFF744FF00238022236122612D
:1047C00083F311882B886FF400619B0203F1006270
:1047D00003F100630A44013B12F8011FFF2903D1D2
:1047E0009A42F9D1002038BD6FF0040038BD00BFF7
:1047F00000200240E0F7FF1F000000000000000062
:1048000038B5264B1B6833B1254A264B1A6000F099
:1048100077F900F085FA244B5A6A1C4612F0010F12
:1048200006D1224A1F4B1A6000F06AF900F078FAAC
:10483000636A1D4D9B07FBD56B6A1D4C13F0005F2F
:1048400018D01C4800F00CF9696A1B4800F008F900
:1048500094E80600194800F003F9202383F3118837
:1048600062B66B6A43F080736B62002383F3118836
:1048700062B602E0124800F0F3F8002222606260A3
:10488000202383F3118862B60E494B6843F480738A
:104890004B60134683F3118862B638BDA412002022
:1048A00010B40108AC130020001002404BB4010802
:1048B0002011002086B40108B6B40108D0B4010864
:1048C000FBB40108002004E000000000000000002C
:1048D000011E70B53FDD202383F3118862B6204BA3
:1048E0005C681E2C04DD002383F3118862B632E07D
:1048F000621C5A60012202FA04F01A6802431A602C
:10490000002383F3118862B6164B1A681D46914244
:1049100023DD062040F6FF7391FBF0F04AF6AA2251
:104920009842A8BF1846104B1A601A46D6680E4B1C
:10493000002EFBD145F255521A6006225A604AF603
:10494000AA2298601A604CF6CC4208481A60296086
:1049500000F086F801E04FF0FF34204670BD00BF44
:1049600020110020A41200200030004030B50108C2
:10497000202383F3118862B60C4901230A6803FAE5
:1049800000F0024348680A608340013B1A409A42A3
:1049900001BF4AF6AA22064B1A60002308BF0B602B
:1049A000002383F3118862B6704700BF20110020F6
:1049B0000030004000000000000000000000000087
:1049C000013810F8013F33B1034A11880906FBD5BD
:1049D0009BB29380F5E77047004400400000000060
:1049E00038B504460D462B786BB10A2B04D12368E9
:1049F00020469B680D219847236820469B6815F840
:104A0000011B9847EFE738BD0000000000000000E0
:104A1000F0B50F46164605460E4C87B001A8214654
:104A200000234FF4807202F063FB324601A839463E
:104A300001F0EEFF019B00219B6801A89847064802
:104A400000F03EFD28462146FFF7CAFF00F048FD72
:104A500007B0F0BDA81200200408002000000000EC
:104A60000FB407B504AA52F8041B04480192FFF7DB
:104A7000CFFF03B05DF804EB04B07047081C0020C2
:104A80000FB413B504AA52F8044B074B214618681B
:104A90000192FFF7BDFF20460FF062FB02B0BDE8B8
:104AA000104004B0704700BF000800200000000064
:104AB00038B50446094D0A4800F002FD2868214631
:104AC000FFF78EFF07492868FFF78AFF00F008FD0F
:104AD00020460FF045FB023038BD00BF0008002023
:104AE00004080020D6C901080000000000000000F2
:104AF00070470000000000000000000000000000FF
:104B000008B5FFF7F5FF72B60D48FFF759FF0D4BDB
:104B10009B691BB1986908B1FFF752FF0A48FFF77C
:104B20004FFF0A4B186808B1FFF74AFF0848FFF724
:104B300047FF084B1B68DB0700D500BE08BD00BF60
:104B400060B50108C816002069B50108AC13002043
:104B5000D6C90108F0ED00E00000000000000000F0
:104B600008B5034B1860FFF7CBFF00F0D9F8FEE75C
:104B7000AC13002000000000000000000000000056
:104B800010B5202383F311880B4BDC68041B002C29
:104B900003DD0620214600F0BBFA002383F31188D1
:104BA0009C4208DA054B2246BDE810409B69044848
:104BB0009969FFF755BF10BDB8160020C816002030
:104BC0006CB50108000000000000000000000000BB
:104BD00008B5FFF795FF00F0A3F8FEE7000000001E
:104BE00001207047000000000000000000000000ED
:104BF00070470000000000000000000000000000FE
:104C000008B54FF47A735843044B0138B0FBF3F006
:104C1000013000F075FB002008BD00BF40420F00CE
:104C200008B54FF47A73584300F06AFB002008BDC2
:104C300070470000000000000000000000000000BD
:104C4000FEE700000000000000000000000000007F
:104C500072B6214B83F30988022282F31488BFF3D2
:104C60006F8F1E4A1E498A4204D24FF0553142F8D6
:104C7000041BF7E71B4A9A4204D24FF0553142F821
:104C8000041BF8E708F094FB174A184B18498B42AD
:104C900004D252F8041F43F8041BF7E7154B164AD9
:104CA000934203D2002243F8042BF8E7FFF7C0FF3A
:104CB000124C134B9C4203D254F8043B9847F8E73C
:104CC000FCF7E6FA0F4C104B9C4203D254F8043B1D
:104CD0009847F8E7FFF7B4FF000800200000002025
:104CE000000400200004002014D601080008002061
:104CF0002011002048110020F091002050010008F0
:104D000084010008840100088401000800000000FC
:104D1000FEE70000000000000000000000000000AE
:104D200072B6FEE700000000000000000000000076
:104D300000F076FA00DF0000000000000000000034
:104D4000EFF30983203383F30988002383F3118869
:104D5000704700000000000000000000000000009C
:104D600008B5094B00229A60084A0720DA60102132
:104D700000F0AEF80A20202100F0AAF8BDE80840B3
:104D80000B20802100F0A4B800ED00E00003FA053C
:104D9000202383F31188144B5B6813F4006320D045
:104DA000EFF309824FF0807342F8043CA2F1200334
:104DB00083F309880D498B690968987F89689B6826
:104DC00020B1994294BF0023012303E0994234BFEC
:104DD000002301230BB1064B00E0064B42F8083CD0
:104DE000704783F31188704700ED00E0C81600207B
:104DF000314D0008344D00080000000000000000A4
:104E000008B5202383F3118800F0BAF8002383F358
:104E10001188BDE80840FFF7BBBF0000000000009C
:104E20002DE9F04FC1F80CD0D0F80CD0BDE8F08FD0
:104E3000002383F311882846A04700F091FA7047B9
:104E400020F0030303F1604303F5614300F0030224
:104E500030B5D200D3F80053FF249440914025EAA6
:104E6000040400F01F02400921438000C3F800132E
:104E700000F160400123934000F56140C0F88031AB
:104E8000036030BD000000000000000000000000D2
:104E900000F01F0101228A4043090B49203341F8E9
:104EA000232020F0030303F1604303F5614300F086
:104EB0000300D3F80013C000FF22824021EA02025F
:104EC000C3F80023704700BF00E100E000000000CD
:104ED00020F0030303F1604310B503F56D4300F0C8
:104EE00003009C69C000FF22824024EA0202814044
:104EF0001143996110BD0000000000000000000097
:104F0000024B034A9B699A6130BFFDE7C816002037
:104F100080B5010800000000000000000000000053
:104F200007B5FFF71DFF00F09BF800F051F800F007
:104F3000B7FC00F0F5FC40210B4800F081F90B496B
:104F4000012288610277002383F3118862B6084842
:104F50008969886100934FF43271064B064800F06E
:104F60009FF903B05DF804FBB0130020C8160020C1
:104F700090B50108014F0008F01300200000000068
:104F800038B5114B9A69937F0BB1013B93770F4B67
:104F9000DA681C460132DA601A689A4213D09368C4
:104FA000013B936022680949936863B91068D5682A
:104FB0000860D360416083F311881069A8472023FB
:104FC00083F31188EEE738BDC8160020B81600201C
:104FD000044B4FF0FF329A6000225B601B60DA6086
:104FE000704700BFB816002000000000000000005D
:104FF00010B5C2600A4A036113689C688C4202D2F1
:10500000091B1B68F9E75C680360446093425860C1
:10501000206081601EBF9A68511A996010BD00BF60
:10502000B816002000000000000000000000000092
:105030000368074A93421FBF9968826852189A60B2
:105040004268136003685A600023C360704700BF62
:10505000B816002000000000000000000000000062
:10506000034B00225B601B609A605B611B617047B1
:10507000C816002000000000000000000000000032
:10508000002303778268054B1B6899689142FBD225
:105090005A6803604260586010607047C81600206C
:1050A00008B5202383F31188037F032B07D001D891
:1050B000A3B10DE0052B06D00D2B04D008E0026A49
:1050C00093680133936090E80C001A6002685360A3
:1050D0004FF0FF330362FFF7D3FF002383F3118800
:1050E00008BD0000000000000000000000000000FB
:1050F000064B14229969087718688A77026853600A
:105100001A60986101230377FFF78ABEC816002052
:1051100030B54B1C87B005460A4C0DD0A36901A8D9
:10512000094AFFF765FF2846FFF7E2FF049B2BB112
:1051300001A8FFF77DFF01E0FFF7DAFFA369186A16
:1051400007B030BDC8160020A150000800000000C4
:1051500038B50C4D0162AB6981689A68044691428A
:1051600003D8BDE83840FFF78BBF1846FFF788FF2C
:1051700001230146AC6123772046BDE83840FFF7A4
:105180004FBE00BFC8160020000000000000000055
:1051900038B50A4C2368A5691A682846546022600D
:1051A0000122A3611A771423AB77FFF769FFA06987
:1051B0002946BDE83840FFF733BE00BFC8160020BF
:1051C0000C4B10B518689969026853601A60012287
:1051D000027700220A778A6898611B689C6894426B
:1051E000FBD85A680B604A60BDE8104059601160F6
:1051F000FFF716BEC81600200000000000000000E7
:10520000044B1A689B6992689B689A4201D9FFF720
:10521000D7BF7047C8160020000000000000000043
:10522000034B9B699B7F0BB9FFF7B2BFFFF7C8BF6A
:10523000C816002000000000000000000000000070
:105240000222027700224277826342638261094A26
:1052500010B58160C16351690261416114245061DC
:1052600000F1240284770861426200F12802C262E0
:10527000826210BDC816002000000000000000007F
:10528000243930B54418C4604350039B1146636011
:10529000024B2362BDE83040FFF7D2BF314E000819
:1052A00013B51C46202383F31188049B00932346E7
:1052B000FFF7E6FF00210446FFF74AFF002383F3D0
:1052C0001188204602B010BD000000000000000060
:1052D00010B5202383F31188084B9B69DC6B996818
:1052E000A14201D0884200D99860D863FFF788FFB7
:1052F000002383F31188204610BD00BFC81600208C
:1053000008B50146202383F311880620FFF700FF2C
:10531000002383F3118808BD000000000000000096
:105320000D4B10B59C692062234653F8240F984218
:1053300004D003686362FFF7A3FEF5E7637F0E20E6
:105340009B0701BF226963691A612269BDE81040A9
:1053500008BF5361FFF7CCBEC81600200000000054
:10536000202383F31188FFF7DBBF0000000000005B
:105370004060006081607047000000000000000095
:10538000836810B55A1E002A826011DA19B9836049
:105390004FF0FF3010BD074B9B69186242681860E0
:1053A0005A60BDE81040436013600320FFF7B0BEB1
:1053B000002010BDC8160020000000000000000002
:1053C00008B5202383F31188FFF7DAFF002383F366
:1053D000118808BD0000000000000000000000006F
:1053E000826803460132002A826007DC0068026896
:1053F0001A60536000230362FFF742BE704700004B
:105400000B4610B51B688B4204D09C68826894429E
:10541000F8D219464B68016043604860186010BDBF
:1054200000234060006083607047000000000000BF
:1054300070B51F4B846806469D69002C32D0AB685E
:10544000A2689A4224D2A360237F042B0BD0052BA1
:1054500015D0EBB994E80C001A602268204653601E
:10546000FFF70EFE14E094E80C001A602268204654
:105470005360216AFFF7C4FF236A9C68DFE794E862
:105480000C001A60226820465360216AFFF7B8FFBB
:1054900028463146FFF7B4FF2E620420BDE8704075
:1054A000FFF726BEAB6B8560C360A86370BD00BF0D
:1054B000C8160020000000000000000000000000EE
:1054C00008B5202383F31188FFF7B2FF002383F38D
:1054D000118808BD0000000000000000000000006E
:1054E00038B5154B9A69202383F31188946B206893
:1054F000E368A042936317D0D16B43B11D689D420E
:1055000003D0AD68A94238BF2946DB68F5E70368D8
:10551000916023605C60836BA060E3608463FFF74D
:10552000AFFDFFF76DFE01E00023A360002383F3CE
:105530001188204638BD00BFC816002000000000BA
:1055400008B5436B1943037F4163082B03D1036AFA
:10555000194206D108BD092B07D1036A19409942A7
:1055600003D1FFF78DFD0023036208BD000000009A
:1055700070B505460E460468AC4208D0E368606822
:105580003343E360A168FFF7DBFF2468F4E770BDF5
:1055900051B1074B9B691862426818605A604360BA
:1055A00013600D20FFF7B4BD4FF0FF30704700BF10
:1055B000C8160020000000000000000000000000ED
:1055C00010B5C361029B00240A44406000608460FF
:1055D00041618161C1600261036210BD0000000091
:1055E00010B50446C368436183610023836020686B
:1055F000A04208D0036823605C60FFF741FD6FF0B4
:1056000001030362F3E710BD00000000000000008A
:10561000426908B503468069824204D1986810B196
:105620006FF0030008BD986801309860501C586105
:10563000117059691A69914201D3DA685A61186880
:10564000984206D002681A605360FFF719FD0023E4
:105650000362002008BD0000000000000000000000
:1056600070B5202304460E4683F31188C36903B145
:105670009847A5683DB920463146FFF789FF0028C5
:10568000F7DA2B460CE0A368A269013BA360531C28
:10569000A36110782269934224BFE368A3610023C9
:1056A00083F3118870BD00000000000000000000BE
:1056B0002DE9F047994604460F469046C6692023D7
:1056C00083F3118800250EB12046B047D4F808A016
:1056D000BAF1000F09D120464946FFF759FF0028CB
:1056E000F4D0534683F3118817E0A368013BA3600D
:1056F000A3695A1CA2611B787B552369A2699A424F
:1057000024BFE368A361002383F311880135A84512
:1057100003D0202383F31188D5E72846BDE8F0871E
:10572000C361009B82600A44406000604161816106
:10573000C1600261036270470000000000000000C9
:1057400010B50446C268036942619B1A8261836096
:105750002068A04208D0036823605C60FFF790FCDB
:105760006FF001030362F3E710BD000000000000CA
:10577000F8B504460E461746202383F31188A56822
:105780004DB920463946FFF703FF0028F7DA2B46CC
:1057900083F31188F8BDA368013BA36063695A1CB9
:1057A00062611E70236962699A4224BFE368636183
:1057B000E3690BB120469847002383F3118818460C
:1057C000F8BD000000000000000000000000000024
:1057D0008269416910B59142034604D1816811B1D3
:1057E0006FF0020010BD996801319960511C9961F8
:1057F00014781A69914201D3DA689A61186898425C
:1058000006D002681A605360FFF73AFC0023036277
:10581000204610BD00000000000000000000000055
:105820002DE9F047994604460E461746D0F81C80ED
:10583000202383F311880025D4F808A0BAF1000FC3
:1058400009D120464946FFF7A3FE0028F4D053466D
:1058500083F3118820E0A36806F1010A013BA360ED
:1058600063695A1C626132781A70236962699A42CC
:1058700024BFE3686361B8F1000F01D02046C04740
:10588000002383F31188013F05F1010504D0202393
:1058900083F311885646CFE72846BDE8F08700001D
:1058A000054B064A23F007031360054B054A23F016
:1058B00007031360704700BFF7910020E81600202F
:1058C00000000120E416002000000000000000009D
:1058D0000649074A073020F0070312680868121AC1
:1058E0009A4226BF1B180B6000207047E816002064
:1058F000E41600200000000000000000000000008E
:1059000008B5202383F31188FFF7E2FF002383F318
:10591000118808BD00000000000000000000000029
:105920000548064B103040F8103C002340F8083C76
:1059300040F8043CFFF774BDF01600200159000840
:1059400008B500F0E5FA00F043F9054800F068FBFF
:1059500000F00EF800F09CF8BDE8084007F030BDFC
:10596000D0C5010800000000000000000000000099
:1059700000F04EBD0000000000000000000000002C
:1059800001230370002343600C30FFF749BD000082
:1059900010B52023044683F31188416000F050FDC8
:1059A00002232370002383F3118810BD0000000040
:1059B00030B51D4685B00446202383F311880023AB
:1059C000836003230370089B0093099B01930A9B48
:1059D00002932B4600F0DCFD431C0CBF0523022381
:1059E0002370002383F3118805B030BD0000000050
:1059F0000C30FFF765BD0000000000000000000053
:105A0000FFF76EBD00000000000000000000000075
:105A10000C30FFF74DBE0000000000000000000049
:105A20000C304FF0FF33FFF743BE000000000000D2
:105A30003030FFF7F5BE000000000000000000005D
:105A400030304FF0FF33FFF7EBBE000000000000E6
:105A50000C30FFF705BE0000000000000000000051
:105A60000C304FF0FF31FFF7FBBD000000000000DD
:105A70003030FFF77DBE0000000000000000000095
:105A800030304FF0FF32FFF773BE0000000000001F
:105A900000F0C6BE00000000000000000000000092
:105AA00037B51546024604460B460D4942F8041B1D
:105AB00042600122027204F1540100904FF400721E
:105AC0000C30FFF77DFD009404F1300004F51571F2
:105AD0004FF400722B46FFF723FE03B030BD00BF2A
